:100000009DEF02F0B8EF06F004EF08F036EC03F0D5
:10001000FF0000F000F012000CEF08F018EF00F005
:10003000F26AFC6A4DEC03F0040055EC06F06CEC3F
:1000400002F060EC03F05EEC04F0F6D739040BE14B
:1000500037501F0B08E1010E316E3850030A02E1E0
:10006000368001D0369039663CD037501F0B020ADB
:1000700038E13B500F0B35E0010E316E3B500F0B5A
:10008000080D040E456E466EF3504526F450462288
:10009000010E3BAE000E040DF3504524126EF450D9
:1000A0004620136E3850030A0DE112C0D9FF13C069
:1000B000DAFF040EDF6E12C0D9FF13C0DAFF000EA4
:1000C000DB8E0FD03BAE07D012C0D9FF13C0DAFFD2
:1000D000400EDF6E06D012C0D9FF13C0DAFF080E43
:1000E000E9D71200080E226E3F5C000E40580AE26B
:1000F0003FC022F0346602D0010E03D0340402E186
:10010000020E346E22C009F422503F5E000E405AA7
:100110000401040E136E240E126E36B20AD015D0EE
:1001200017D8F76403D00800F55002D0F8EC07F0B8
:100130001AD82266F5D70BD00BD8F76403D0080085
:10014000F55002D0F8EC07F00ED82266F5D7120071
:1001500015C0F6FF16C0F7FFF86A12C0D9FF13C02A
:10016000DAFF070E1200DF6E124A132A154A162A0A
:10017000220612003738E832030B42E12CD0010E80
:10018000316E040E356E3CD0BAEC07F039D030EC4D
:1001900002F036D0010E316E166A430E156E36929D
:1001A000010E3F6E2DD001EC01F02AD026EC00F0BC
:1001B00027D0010E316E3B50440F476E47C015F0FB
:1001C000166AEDD7010E316E3B50440FD96EDA6AD4
:1001D00039C0DFFF15D03850E6E0010AE7E0020A37
:1001E000E5E0060ACCE0030ACFE0010A09E00F0AC5
:1001F000D1E0010ACCE0030ADCE0010AE3E0070AEF
:100200001200246B256B29D0010E316E36B0248389
:100210002BD0010E316E28D0010E316E3B500F0BEA
:10022000080D040E456E466EF3504526F4504622E6
:10023000010E3BAE000E040DF3504524126EF45037
:100240004620136E12C0D9FF13C0DAFFDF50456E8F
:1002500045A40AD0010E246F07D037501F0BD4E0FD
:10026000010AD7E0030AD8E0310407E1040E166E54
:10027000240E156E3692020E3F6E1200E8CF47F044
:10028000336A04010CBF28D045500D5DD8A00DC4C1
:1002900045F0336A0DD02C0E3324D96EDA6A040E81
:1002A000DA2247503324E16EE26ADFCFE7FF332AD8
:1002B0004550335CF0E3400E0D6F0C17010E0CBD82
:1002C000000E466E463A464646460C514618BF0B4F
:1002D00046180C6F0C870C8F1200E8CF47F0400EC9
:1002E000456401D0456E486A0DD047504824D96E08
:1002F000DA6A6C0E4824E16EE26A040EE222DFCF75
:10030000E7FF482A4550485CF0E345C011F4400E31
:1003100004011017010E10BD000E466E463A464607
:10032000464610514618BF0B4618106F1087108FA5
:1003300012000F0EC16E928880A803D0C16E9298F1
:1003400002D018EC00F0060EF66E12D84D50600A7E
:100350000D0ED8B44C1808E1F66A0AD84C28D8B467
:100360004D28D8A400EF08F018EC00F000EF00F0E2
:10037000100EF76E0900F5CF4CF00900F5CF4DF0E7
:10038000100CE8CF45F0080E066E0401040E086E4E
:100390001C0E076E456608D0040E086E140E076E1C
:1003A000040E1B6E000E02D0040E1B6E1A6E1AC0D5
:1003B000D9FF1BC0DAFF05C0DEFF06C0DEFF07C0A5
:1003C000DEFF08C0DEFF1AC0D9FF1BC0DAFFDF8ED8
:1003D0001200030E356E6B6A686A7B0E696E6E6A78
:1003E000716A726A736A746A756A766A776A160ED7
:1003F000706E6D8C03D06896FEEC07F068B6FBD784
:100400006D9C6D98040E056E000EC1EC01F0010E9E
:100410002F6E366A436A000E24EF03F0300EF86E3A
:1004200062C046F046C047F0486A4750F76E61C068
:10043000F7FF266A0FD06551A0082624D96EDA6A24
:10044000DF50F56E0C00C40EA66EB50ECBEC02F0BC
:100450000900262A00016551265CD8B01200EBD7AE
:10046000010E316E716A726A736A746A756A766AAD
:10047000776A246A2450440FD96EDA6ADF6A242A24
:100480002450F8E039C043F0435024EC03F03966BF
:1004900002D0050E01D0060E356E12003550040A4A
:1004A00007E139C06EFF6E50050ED8B4030E356EED
:1004B000320411E172EC00F03450020A05E1040E3E
:1004C0000401086F088F07D0040108BD02D0480E50
:1004D000F8D7080EF6D712001806D8A0190619503A
:1004E000181012E14E0E196E186A060E355C02E203
:1004F00089880AD0010E89B8000E456E453A8950A8
:100500004518EF0B4518896E1200276A10D061510B
:100510002724A96E6551A0082724D96EDA6ADF5016
:10052000A86E040EA66EB50ECBEC02F0272A0001D1
:100530006551275CD8B01200EAD701EE00F0400EFA
:10054000EE6AE806FDE100EE60F0820EEE6AE80673
:10055000FDE100EE01F0440EEE6AE806FDE1000E5A
:10056000F86E000199EF01F00401086B346A00AFE6
:1005700002D0006B2F6A04AF03D0046B010E2F6E04
:10058000326A316A3F6A406A6D98BAEC00F002EC58
:1005900000F06CEF07F0E8CF45F0F29E60EC03F05E
:1005A0004550B50A04E0030ED36E0300FED7550E86
:1005B000A76EAA0EA76EA682A6B2FED7A6941200B8
:1005C000336A1E0E716E400E0D6F040E0F6F2C0EEF
:1005D0000E6F080E0C6F0C8F040E136F6C0E126FE3
:1005E000400E106F400C2E04D8B436EC03F06D6A48
:1005F000150E6F6E696A6D86E9EC01F0010E356EBD
:100600002E6A120069CF25F0040E696E68986D821B
:10061000A19AA08A3FEC03F0A09A2550691212001B
:1006200005D0FEEC07F04506D8A04606465045101A
:10063000D8B41200F6D759EC03F06D92699401D04A
:10064000689468A41200FCD7E8CF45F0450404E1A3
:10065000E0EC02F02DEC03F012002B6A0168026856
:10066000036804682C6A010E2D6E010C6D926D6A90
:10067000FF0E4668456810EC03F0356A1200899851
:100680000300A1BA02D0D0A6FBD712002E04D8A432
:100690006DB602D0F3EC02F012002DEC03F0899855
:1006A000929853EF03F06DB636EC03F02E6A46EFE6
:1006B00003F0030E466E456A16EF03F012001200B7
:0206C000120026
:1008000000B6046134034D006900630072006F009C
:1008100063006800690070002000540065006300F8
:1008200068006E006F006C006F00670079002000A8
:1008300049006E0063002E000902290001010080BA
:100840003209040000020300000009211101000127
:10085000221D000705810340000107050103400038
:10086000012603480049004400200055005300427F
:1008700000200042006F006F0074006C006F006188
:10088000006400650072000600FF0901A101190162
:100890002940150026FF007508954081001901299F
:1008A000409100C01201000200000008D8043C0082
:1008B0000101010200010403090400003550060A89
:1008C000D8B46DB28ED12B6671D104010CBF89D121
:1008D000400E456E0001600E3EEC01F0010E2B6EE5
:1008E000206A20500001A10FD96EDA6ADF6A202A3F
:1008F0003F0E2064F6D775D1040110BF72D1020EED
:100900000001A16F3A0EA26F010EA36FA46FA56B39
:10091000100EA66FA76BA86BA96B700EAA6FAB6BBE
:10092000AC6B030EAD6FAE6BAF6B300EB06FB16BD7
:100930000E0EB26FB36BB46BB56B040EB66FB76BC4
:10094000B86B200EB96FBA6B080EBB6FBC6BBD6B7A
:10095000BE6BBF69020EBF6FC06BC16BF00EC26F82
:10096000C36BC46B010EC56FC66BC76BC869A50EA0
:10097000DA6F400E456EA10E6DEC01F02B6A31D19D
:10098000010E2D6E6167FAD72D6AF8D71F6A400EE7
:100990001E6EFEEC07F0F86A1EC04AF01FC04BF056
:1009A000D8904B324A32D8904B324A324A50F76E86
:1009B0001E40E842C00BF66E940EA66EB50ECBEC50
:1009C00002F055EC06F01E4A1F2A000E1E5C020EB5
:1009D0001F58DFE3206A20C0A9FFA868040EA66E96
:1009E00055EC06F0B50ECBEC02F0203EF4D7200E0D
:1009F000F86EF76AF66A940EA66EB50ECBEC02F0AE
:100A0000BDD76351300A05E12D66B8D70EEC02F070
:100A1000B5D76351F00A03E185EC02F0AFD70128A6
:100A2000D8B40228D8B40328D8B4042808E161C097
:100A300001F062C002F063C003F064C004F004502F
:100A4000641908E10350631905E10250621902E1DB
:100A50000150611993E1206A1AD06551A008202441
:100A6000D96EDA6A0101000E2C24E16EE26A010EF1
:100A7000E222DFCFE7FF2C2A012A000E0222032206
:100A800004222C50200AD8B4F2EC05F0202A0001F0
:100A90006551205C01E372D7E0D7F2EC05F0016804
:100AA0000268036804686AD7070EA16F61C0A2F0EC
:100AB00062C0A3F063C0A4F064C0A5F065C0A6F056
:100AC000200E0B6E62C00AF061C009F0206A23D0CC
:100AD0006351F00A0DE161512024A96EA66AA68037
:100AE0006551E1082024D96EDA6AA8CFDFFF12D061
:100AF00009C0F6FF0AC0F7FF0BC0F8FF6551E10817
:100B00002024D96EDA6A0800F5CFDFFF092A000E2B
:100B10000A220B22202A6551205CDAE3040110BF6F
:100B200060D0400E456E0001A10E6DEC01F026D79D
:100B300014EC07F023D70C0EA16F010EA36F020E69
:100B4000A26F160EF66E100EF76E0900F5CFA4F028
:100B50000A00F5CFA5F0060EA66F100EA76FA86BC2
:100B6000A96B600EAB6F0D0EAA6F400EAC6F000E3E
:100B7000AD6BAE6BAF6BB069B169B269B369B46BA1
:100B8000B569B669B76BB869B969BA69BB69BC6957
:100B9000BD69040110BF25D0400E456E0001A10EB5
:100BA0006DEC01F0EBD606EC00F0E8D600016051E8
:100BB000020A01E1A1D6010A01E1E2D6070A01E138
:100BC000E5D6010A01E11DD7030A01E166D7010A52
:100BD00001E16AD70F0AE7E0010AAAE0050AABE0E3
:100BE000CDD612002C50015C466E000E0258476EA6
:100BF000000E0358486E000E0458496E46500F6EA2
:100C000047C010F048C011F0F86A10C046F046C066
:100C100047F0486A4750F76E0FC0F6FF286AF65053
:100C20001F0B296EE00EF6162A6A296612D02C5088
:100C30000DE00101000E2824D96EDA6A010EDA22D5
:100C4000DF50F56E0D00282A2C0606D0F5680D0041
:100C500003D0F5680D0029062A2A1F0E2A64E5D75D
:100C60000A00A40EA66EB50ECBEC02F02A6A18D0CC
:100C7000000E466E010E476E28504626000E472293
:100C80002A504624D96E000E4720DA6E0101000E6C
:100C90002A24E16EE26A010EE222DFCFE7FF2A2A70
:100CA0002C502A5CD8B01200E3D746EC03F035662E
:100CB00001D05DD068B41BEC03F06DB258D068B0C1
:100CC000E9EC01F068B802EC03F0030E355C4FE389
:100CD000306A68A64CD06C506CCF48F07C0E481639
:100CE0003AE16CB205D00401040E1D6E000E03D073
:100CF0000401040E1D6E1C6E68961CC0D9FF1DC039
:100D0000DAFFDF30E8320F0B0D0A2DE1236A20EE07
:100D100002F01C50D9261D50DA22DECF48F0DDCF7C
:100D200049F048C0D9FF49C0DAFF2350370FE16EC0
:100D3000E26ADFCFE7FF20EE02F01C50D9261D50FB
:100D4000DA22DE2A000EDD22232A070E2364DFD7F3
:100D5000B4EC02F008D06C50040A04E168964EEC42
:100D600002F001D06896302A030E3064B2D7120028
:100D700037501F0B456E450456E13B5054E1385047
:100D8000060A18E01ED0020E316E080E166E4A0ECC
:100D9000156E406A090E0CD0020E316E430404E158
:100DA000080E166E870E156E43040AE1406A1D0E8A
:100DB0003F6E06D03A50210AE6E0030AEDE0010A50
:100DC00036823738E832030B456E45042CE11ED0DD
:100DD0005FEC03F028D05EEC03F025D0020E316EFC
:100DE000166A420E156E3692010E3F6E1CD0020E30
:100DF000316E3AC042F017D0020E316E166A410EC3
:100E0000F1D7020E316E39C041F00DD03850010AD1
:100E1000DFE0030AE3E0010AEFE00A0ADCE0030A8C
:100E2000E6E0010AEEE012000E6A100E0D6E0C6A8A
:100E3000216A0CC0F6FF0DC0F7FF0EC0F8FF44D8C2
:100E40000800F5CFDFFF0C2A000E0D220E22212A0A
:100E50003F0E2164EED70D0E066F600E076FF86A25
:100E6000100EF76EF66A940EA66EB50ECBEC02F07D
:100E70000E6A100E0D6E3F0E0C6E216E0EC0F8FF46
:100E80000DC046F046C047F0486A4750F76E0CC0A8
:100E9000F6FF1AD8DF50F56E0C0021C046F01F0E89
:100EA000461607E1FEEC07F0A40EA66EB50ECBECDD
:100EB00002F00C06000E0D5A0E5A0A00216601D0EF
:100EC00002D02106DBD712000101000E2124D96EC9
:100ED000DA6A010EDA221200316612D0040E040121
:100EE000086F088F056E2F0405E1010EC1EC01F0BB
:100EF0002F6A3FD0000EC1EC01F0010E2F6E39D0E9
:100F000037AE1DD0010E326E3F503D5C40503E5812
:100F100004E23DC03FF03EC040F072EC00F0480EED
:100F2000056E010EC1EC01F0000EC1EC01F0040EE3
:100F30000B6F240E0A6F480E086F088F1AD0020E2E
:100F4000326E040E056E3E503D1002E1480E056EF5
:100F50002F0405E1010EC1EC01F02F6A05D0000E4F
:100F6000C1EC01F0010E2F6E3E503D1002E1096B05
:100F7000E2D712003750800A32E039D0010E316ECC
:100F8000080E166EA40E156E120E0BD039662ED0FA
:100F9000010E316E080E166E380E156E000E406E84
:100FA000290E3F6E23D0010E316E3950010FF66EBF
:100FB000080EF76E0800F5CF45F045C015F0166A2B
:100FC00015C0F6FF16C0F7FFF86A070EF76403D0E6
:100FD0000800F55001D00CD83F6E406A07D03A5057
:100FE000010ACCE0030AD2E0010ADDE036821200F9
:100FF000F6CFE1FFF7CFE2FFE75012000400120046
:021006000D607B
:020000040020DA
:08000000FFFFFFFFFFFFFFFF00
:020000040030CA
:0E000000240E3F1EFF8181FF0FC00FE00F4056
:00000001FF
